{"abi":[{"type":"constructor","inputs":[{"name":"registryAddr","type":"address","internalType":"address"},{"name":"reputationAddr","type":"address","internalType":"address"}],"stateMutability":"nonpayable"},{"type":"function","name":"challengeStake","inputs":[],"outputs":[{"name":"","type":"uint256","internalType":"uint256"}],"stateMutability":"view"},{"type":"function","name":"challengeStakes","inputs":[{"name":"","type":"uint256","internalType":"uint256"}],"outputs":[{"name":"","type":"uint256","internalType":"uint256"}],"stateMutability":"view"},{"type":"function","name":"challengeTimeout","inputs":[],"outputs":[{"name":"","type":"uint256","internalType":"uint256"}],"stateMutability":"view"},{"type":"function","name":"challenges","inputs":[{"name":"","type":"uint256","internalType":"uint256"}],"outputs":[{"name":"id","type":"uint256","internalType":"uint256"},{"name":"experimentId","type":"uint256","internalType":"uint256"},{"name":"challenger","type":"address","internalType":"address"},{"name":"computedMetricsHash","type":"bytes32","internalType":"bytes32"},{"name":"createdAt","type":"uint64","internalType":"uint64"},{"name":"deadline","type":"uint64","internalType":"uint64"},{"name":"resolved","type":"bool","internalType":"bool"},{"name":"experimentValid","type":"bool","internalType":"bool"}],"stateMutability":"view"},{"type":"function","name":"expireChallenge","inputs":[{"name":"challengeId","type":"uint256","internalType":"uint256"}],"outputs":[],"stateMutability":"nonpayable"},{"type":"function","name":"getChallengeStatus","inputs":[{"name":"challengeId","type":"uint256","internalType":"uint256"}],"outputs":[{"name":"experimentId","type":"uint256","internalType":"uint256"},{"name":"challenger","type":"address","internalType":"address"},{"name":"resolved","type":"bool","internalType":"bool"},{"name":"experimentValid","type":"bool","internalType":"bool"},{"name":"deadline","type":"uint64","internalType":"uint64"},{"name":"stake","type":"uint256","internalType":"uint256"}],"stateMutability":"view"},{"type":"function","name":"nextChallengeId","inputs":[],"outputs":[{"name":"","type":"uint256","internalType":"uint256"}],"stateMutability":"view"},{"type":"function","name":"openChallenge","inputs":[{"name":"experimentId","type":"uint256","internalType":"uint256"},{"name":"computedMetricsHash","type":"bytes32","internalType":"bytes32"}],"outputs":[{"name":"challengeId","type":"uint256","internalType":"uint256"}],"stateMutability":"payable"},{"type":"function","name":"owner","inputs":[],"outputs":[{"name":"","type":"address","internalType":"address"}],"stateMutability":"view"},{"type":"function","name":"registry","inputs":[],"outputs":[{"name":"","type":"address","internalType":"contract IPoXRegistryForChallenge"}],"stateMutability":"view"},{"type":"function","name":"reputation","inputs":[],"outputs":[{"name":"","type":"address","internalType":"contract IReputationForChallenge"}],"stateMutability":"view"},{"type":"function","name":"resolveChallenge","inputs":[{"name":"challengeId","type":"uint256","internalType":"uint256"},{"name":"experimentValid","type":"bool","internalType":"bool"}],"outputs":[],"stateMutability":"nonpayable"},{"type":"function","name":"updateChallengeStake","inputs":[{"name":"newStake","type":"uint256","internalType":"uint256"}],"outputs":[],"stateMutability":"nonpayable"},{"type":"function","name":"updateChallengeTimeout","inputs":[{"name":"newTimeout","type":"uint256","internalType":"uint256"}],"outputs":[],"stateMutability":"nonpayable"},{"type":"function","name":"verificationRewardDivisor","inputs":[],"outputs":[{"name":"","type":"uint256","internalType":"uint256"}],"stateMutability":"view"},{"type":"event","name":"ChallengeExpired","inputs":[{"name":"id","type":"uint256","indexed":true,"internalType":"uint256"}],"anonymous":false},{"type":"event","name":"ChallengeOpened","inputs":[{"name":"id","type":"uint256","indexed":true,"internalType":"uint256"},{"name":"experimentId","type":"uint256","indexed":true,"internalType":"uint256"},{"name":"challenger","type":"address","indexed":true,"internalType":"address"},{"name":"computedMetricsHash","type":"bytes32","indexed":false,"internalType":"bytes32"},{"name":"stake","type":"uint256","indexed":false,"internalType":"uint256"},{"name":"deadline","type":"uint64","indexed":false,"internalType":"uint64"}],"anonymous":false},{"type":"event","name":"ChallengeResolved","inputs":[{"name":"id","type":"uint256","indexed":true,"internalType":"uint256"},{"name":"experimentId","type":"uint256","indexed":true,"internalType":"uint256"},{"name":"experimentValid","type":"bool","indexed":false,"internalType":"bool"},{"name":"submitterDelta","type":"int256","indexed":false,"internalType":"int256"},{"name":"challengerDelta","type":"int256","indexed":false,"internalType":"int256"}],"anonymous":false},{"type":"event","name":"StakeUpdated","inputs":[{"name":"newStake","type":"uint256","indexed":false,"internalType":"uint256"}],"anonymous":false},{"type":"event","name":"TimeoutUpdated","inputs":[{"name":"newTimeout","type":"uint256","indexed":false,"internalType":"uint256"}],"anonymous":false},{"type":"error","name":"ReentrancyGuardReentrantCall","inputs":[]}],"bytecode":{"object":"0x60e0604052662386f26fc1000060035562093a80600455600a60055534801562000027575f80fd5b506040516200244d3803806200244d83398181016040528101906200004d91906200025b565b60016200006f62000063620001c460201b60201c565b620001ed60201b60201c565b5f01819055505f73ffffffffffffffffffffffffffffffffffffffff168273ffffffffffffffffffffffffffffffffffffffff1614158015620000de57505f73ffffffffffffffffffffffffffffffffffffffff168173ffffffffffffffffffffffffffffffffffffffff1614155b62000120576040517f08c379a00000000000000000000000000000000000000000000000000000000081526004016200011790620002fe565b60405180910390fd5b8173ffffffffffffffffffffffffffffffffffffffff1660808173ffffffffffffffffffffffffffffffffffffffff16815250508073ffffffffffffffffffffffffffffffffffffffff1660a08173ffffffffffffffffffffffffffffffffffffffff16815250503373ffffffffffffffffffffffffffffffffffffffff1660c08173ffffffffffffffffffffffffffffffffffffffff168152505050506200031e565b5f7f9b779b17422d0df92223018b32b4d1fa46e071723d6817e2486d003becc55f005f1b905090565b5f819050919050565b5f80fd5b5f73ffffffffffffffffffffffffffffffffffffffff82169050919050565b5f6200022582620001fa565b9050919050565b620002378162000219565b811462000242575f80fd5b50565b5f8151905062000255816200022c565b92915050565b5f8060408385031215620002745762000273620001f6565b5b5f620002838582860162000245565b9250506020620002968582860162000245565b9150509250929050565b5f82825260208201905092915050565b7f7a65726f206164647265737300000000000000000000000000000000000000005f82015250565b5f620002e6600c83620002a0565b9150620002f382620002b0565b602082019050919050565b5f6020820190508181035f8301526200031781620002d8565b9050919050565b60805160a05160c0516120d36200037a5f395f81816103a9015281816104ff015281816106cb015261079301525f8181610b9201528181610c1a0152610d1801525f81816104db015281816108f60152610ff601526120d35ff3fe6080604052600436106100e7575f3560e01c8063832c8bc611610089578063c52164c611610058578063c52164c6146102f5578063d0192ed21461031f578063f8e09a1814610347578063fc67aa5014610377576100e7565b8063832c8bc61461021f5780638da5cb5b146102605780638f1d37761461028a57806394a754e0146102cd576100e7565b8063571dc452116100c5578063571dc4521461016757806376cc3f22146101915780637b103999146101cd578063821364b1146101f7576100e7565b80633ee3b4e1146100eb57806342ffe8451461011557806351c544461461013d575b5f80fd5b3480156100f6575f80fd5b506100ff6103a1565b60405161010c91906113dc565b60405180910390f35b348015610120575f80fd5b5061013b60048036038101906101369190611430565b6103a7565b005b348015610148575f80fd5b506101516104b8565b60405161015e91906113dc565b60405180910390f35b348015610172575f80fd5b5061017b6104be565b60405161018891906113dc565b60405180910390f35b34801561019c575f80fd5b506101b760048036038101906101b29190611430565b6104c4565b6040516101c491906113dc565b60405180910390f35b3480156101d8575f80fd5b506101e16104d9565b6040516101ee91906114d5565b60405180910390f35b348015610202575f80fd5b5061021d60048036038101906102189190611430565b6104fd565b005b34801561022a575f80fd5b5061024560048036038101906102409190611430565b610621565b6040516102579695949392919061154a565b60405180910390f35b34801561026b575f80fd5b506102746106c9565b60405161028191906115a9565b60405180910390f35b348015610295575f80fd5b506102b060048036038101906102ab9190611430565b6106ed565b6040516102c49897969594939291906115da565b60405180910390f35b3480156102d8575f80fd5b506102f360048036038101906102ee9190611680565b610791565b005b348015610300575f80fd5b50610309610d16565b60405161031691906116de565b60405180910390f35b34801561032a575f80fd5b5061034560048036038101906103409190611430565b610d3a565b005b610361600480360381019061035c9190611721565b610f61565b60405161036e91906113dc565b60405180910390f35b348015610382575f80fd5b5061038b6112f4565b60405161039891906113dc565b60405180910390f35b60055481565b7f000000000000000000000000000000000000000000000000000000000000000073ffffffffffffffffffffffffffffffffffffffff163373ffffffffffffffffffffffffffffffffffffffff1614610435576040517f08c379a000000000000000000000000000000000000000000000000000000000815260040161042c906117b9565b60405180910390fd5b5f8111610477576040517f08c379a000000000000000000000000000000000000000000000000000000000815260040161046e90611821565b60405180910390fd5b806003819055507f6a36d9ae14e63a7e1b6dd689b4ffd4ac78affeeb8c92036819ae062d6f8d940f816040516104ad91906113dc565b60405180910390a150565b60045481565b60035481565b6002602052805f5260405f205f915090505481565b7f000000000000000000000000000000000000000000000000000000000000000081565b7f000000000000000000000000000000000000000000000000000000000000000073ffffffffffffffffffffffffffffffffffffffff163373ffffffffffffffffffffffffffffffffffffffff161461058b576040517f08c379a0000000000000000000000000000000000000000000000000000000008152600401610582906117b9565b60405180910390fd5b6201518081101580156105a1575062278d008111155b6105e0576040517f08c379a00000000000000000000000000000000000000000000000000000000081526004016105d790611889565b60405180910390fd5b806004819055507f1a1cd30e223035d872019b55a16a88e0fad18aac07397d463628bf771cc10b948160405161061691906113dc565b60405180910390a150565b5f805f805f805f60015f8981526020019081526020015f2090508060010154816002015f9054906101000a900473ffffffffffffffffffffffffffffffffffffffff168260040160109054906101000a900460ff168360040160119054906101000a900460ff168460040160089054906101000a900467ffffffffffffffff1660025f8e81526020019081526020015f20549650965096509650965096505091939550919395565b7f000000000000000000000000000000000000000000000000000000000000000081565b6001602052805f5260405f205f91509050805f015490806001015490806002015f9054906101000a900473ffffffffffffffffffffffffffffffffffffffff1690806003015490806004015f9054906101000a900467ffffffffffffffff16908060040160089054906101000a900467ffffffffffffffff16908060040160109054906101000a900460ff16908060040160119054906101000a900460ff16905088565b7f000000000000000000000000000000000000000000000000000000000000000073ffffffffffffffffffffffffffffffffffffffff163373ffffffffffffffffffffffffffffffffffffffff161461081f576040517f08c379a0000000000000000000000000000000000000000000000000000000008152600401610816906117b9565b60405180910390fd5b6108276112f9565b5f60015f8481526020019081526020015f2090508060040160109054906101000a900460ff161561088d576040517f08c379a0000000000000000000000000000000000000000000000000000000008152600401610884906118f1565b60405180910390fd5b8060040160089054906101000a900467ffffffffffffffff1667ffffffffffffffff164211156108f2576040517f08c379a00000000000000000000000000000000000000000000000000000000081526004016108e990611959565b60405180910390fd5b5f807f000000000000000000000000000000000000000000000000000000000000000073ffffffffffffffffffffffffffffffffffffffff166334ae9b2384600101546040518263ffffffff1660e01b815260040161095191906113dc565b5f60405180830381865afa15801561096b573d5f803e3d5ffd5b505050506040513d5f823e3d601f19601f820116820180604052508101906109939190611b7c565b5050955050505092505060018360040160106101000a81548160ff021916908315150217905550838360040160116101000a81548160ff0219169083151502179055505f60025f8781526020019081526020015f205490505f808615610ad75783915060055484610a049190611ca3565b90505f866002015f9054906101000a900473ffffffffffffffffffffffffffffffffffffffff1673ffffffffffffffffffffffffffffffffffffffff1684604051610a4e90611d00565b5f6040518083038185875af1925050503d805f8114610a88576040519150601f19603f3d011682016040523d82523d5f602084013e610a8d565b606091505b5050905080610ad1576040517f08c379a0000000000000000000000000000000000000000000000000000000008152600401610ac890611d5e565b60405180910390fd5b50610b90565b83610ae190611d7c565b91508390505f8573ffffffffffffffffffffffffffffffffffffffff1684604051610b0b90611d00565b5f6040518083038185875af1925050503d805f8114610b45576040519150601f19603f3d011682016040523d82523d5f602084013e610b4a565b606091505b5050905080610b8e576040517f08c379a0000000000000000000000000000000000000000000000000000000008152600401610b8590611e0c565b60405180910390fd5b505b7f000000000000000000000000000000000000000000000000000000000000000073ffffffffffffffffffffffffffffffffffffffff1663f5b3ceda86846040518363ffffffff1660e01b8152600401610beb929190611e39565b5f604051808303815f87803b158015610c02575f80fd5b505af1158015610c14573d5f803e3d5ffd5b505050507f000000000000000000000000000000000000000000000000000000000000000073ffffffffffffffffffffffffffffffffffffffff1663f5b3ceda876002015f9054906101000a900473ffffffffffffffffffffffffffffffffffffffff16836040518363ffffffff1660e01b8152600401610c96929190611e39565b5f604051808303815f87803b158015610cad575f80fd5b505af1158015610cbf573d5f803e3d5ffd5b505050508560010154887fb25b2fc354b9c1d8aa4d4ba0ee7e54b71066066782fa21451bf68b131d388c3b898585604051610cfc93929190611e60565b60405180910390a3505050505050610d1261131b565b5050565b7f000000000000000000000000000000000000000000000000000000000000000081565b610d426112f9565b5f60015f8381526020019081526020015f2090508060040160109054906101000a900460ff1615610da8576040517f08c379a0000000000000000000000000000000000000000000000000000000008152600401610d9f906118f1565b60405180910390fd5b8060040160089054906101000a900467ffffffffffffffff1667ffffffffffffffff164211610e0c576040517f08c379a0000000000000000000000000000000000000000000000000000000008152600401610e0390611edf565b60405180910390fd5b60018160040160106101000a81548160ff02191690831515021790555060018160040160116101000a81548160ff0219169083151502179055505f60025f8481526020019081526020015f205490505f826002015f9054906101000a900473ffffffffffffffffffffffffffffffffffffffff1673ffffffffffffffffffffffffffffffffffffffff1682604051610ea390611d00565b5f6040518083038185875af1925050503d805f8114610edd576040519150601f19603f3d011682016040523d82523d5f602084013e610ee2565b606091505b5050905080610f26576040517f08c379a0000000000000000000000000000000000000000000000000000000008152600401610f1d90611d5e565b60405180910390fd5b837f5e804f6ab65f629e96873f89acb6e5d1456139dc56369bcfc528171e348baa4260405160405180910390a2505050610f5e61131b565b50565b5f610f6a6112f9565b600354341015610faf576040517f08c379a0000000000000000000000000000000000000000000000000000000008152600401610fa690611f47565b60405180910390fd5b5f801b8203610ff3576040517f08c379a0000000000000000000000000000000000000000000000000000000008152600401610fea90611faf565b60405180910390fd5b5f7f000000000000000000000000000000000000000000000000000000000000000073ffffffffffffffffffffffffffffffffffffffff166334ae9b23856040518263ffffffff1660e01b815260040161104d91906113dc565b5f60405180830381865afa158015611067573d5f803e3d5ffd5b505050506040513d5f823e3d601f19601f8201168201806040525081019061108f9190611b7c565b5050505050505090508381146110da576040517f08c379a00000000000000000000000000000000000000000000000000000000081526004016110d190612017565b60405180910390fd5b5f5491505f8081548092919060010191905055505f600454426110fd9190612035565b90506040518061010001604052808481526020018681526020013373ffffffffffffffffffffffffffffffffffffffff1681526020018581526020014267ffffffffffffffff1681526020018267ffffffffffffffff1681526020015f151581526020015f151581525060015f8581526020019081526020015f205f820151815f0155602082015181600101556040820151816002015f6101000a81548173ffffffffffffffffffffffffffffffffffffffff021916908373ffffffffffffffffffffffffffffffffffffffff160217905550606082015181600301556080820151816004015f6101000a81548167ffffffffffffffff021916908367ffffffffffffffff16021790555060a08201518160040160086101000a81548167ffffffffffffffff021916908367ffffffffffffffff16021790555060c08201518160040160106101000a81548160ff02191690831515021790555060e08201518160040160116101000a81548160ff0219169083151502179055509050503460025f8581526020019081526020015f20819055503373ffffffffffffffffffffffffffffffffffffffff1685847f2f1689f387ece3be3c987e66cfc632e0f5d9ba2809f93187114d9a5e47e3cf848734866040516112dc93929190612068565b60405180910390a450506112ee61131b565b92915050565b5f5481565b611301611335565b600261131361130e611376565b61139f565b5f0181905550565b600161132d611328611376565b61139f565b5f0181905550565b61133d6113a8565b15611374576040517f3ee5aeb500000000000000000000000000000000000000000000000000000000815260040160405180910390fd5b565b5f7f9b779b17422d0df92223018b32b4d1fa46e071723d6817e2486d003becc55f005f1b905090565b5f819050919050565b5f60026113bb6113b6611376565b61139f565b5f015414905090565b5f819050919050565b6113d6816113c4565b82525050565b5f6020820190506113ef5f8301846113cd565b92915050565b5f604051905090565b5f80fd5b5f80fd5b61140f816113c4565b8114611419575f80fd5b50565b5f8135905061142a81611406565b92915050565b5f60208284031215611445576114446113fe565b5b5f6114528482850161141c565b91505092915050565b5f73ffffffffffffffffffffffffffffffffffffffff82169050919050565b5f819050919050565b5f61149d6114986114938461145b565b61147a565b61145b565b9050919050565b5f6114ae82611483565b9050919050565b5f6114bf826114a4565b9050919050565b6114cf816114b5565b82525050565b5f6020820190506114e85f8301846114c6565b92915050565b5f6114f88261145b565b9050919050565b611508816114ee565b82525050565b5f8115159050919050565b6115228161150e565b82525050565b5f67ffffffffffffffff82169050919050565b61154481611528565b82525050565b5f60c08201905061155d5f8301896113cd565b61156a60208301886114ff565b6115776040830187611519565b6115846060830186611519565b611591608083018561153b565b61159e60a08301846113cd565b979650505050505050565b5f6020820190506115bc5f8301846114ff565b92915050565b5f819050919050565b6115d4816115c2565b82525050565b5f610100820190506115ee5f83018b6113cd565b6115fb602083018a6113cd565b61160860408301896114ff565b61161560608301886115cb565b611622608083018761153b565b61162f60a083018661153b565b61163c60c0830185611519565b61164960e0830184611519565b9998505050505050505050565b61165f8161150e565b8114611669575f80fd5b50565b5f8135905061167a81611656565b92915050565b5f8060408385031215611696576116956113fe565b5b5f6116a38582860161141c565b92505060206116b48582860161166c565b9150509250929050565b5f6116c8826114a4565b9050919050565b6116d8816116be565b82525050565b5f6020820190506116f15f8301846116cf565b92915050565b611700816115c2565b811461170a575f80fd5b50565b5f8135905061171b816116f7565b92915050565b5f8060408385031215611737576117366113fe565b5b5f6117448582860161141c565b92505060206117558582860161170d565b9150509250929050565b5f82825260208201905092915050565b7f6e6f74206f776e657200000000000000000000000000000000000000000000005f82015250565b5f6117a360098361175f565b91506117ae8261176f565b602082019050919050565b5f6020820190508181035f8301526117d081611797565b9050919050565b7f7a65726f207374616b65000000000000000000000000000000000000000000005f82015250565b5f61180b600a8361175f565b9150611816826117d7565b602082019050919050565b5f6020820190508181035f830152611838816117ff565b9050919050565b7f696e76616c69642074696d656f757400000000000000000000000000000000005f82015250565b5f611873600f8361175f565b915061187e8261183f565b602082019050919050565b5f6020820190508181035f8301526118a081611867565b9050919050565b7f616c7265616479207265736f6c766564000000000000000000000000000000005f82015250565b5f6118db60108361175f565b91506118e6826118a7565b602082019050919050565b5f6020820190508181035f830152611908816118cf565b9050919050565b7f6368616c6c656e676520657870697265640000000000000000000000000000005f82015250565b5f61194360118361175f565b915061194e8261190f565b602082019050919050565b5f6020820190508181035f83015261197081611937565b9050919050565b5f8151905061198581611406565b92915050565b611994816114ee565b811461199e575f80fd5b50565b5f815190506119af8161198b565b92915050565b5f80fd5b5f80fd5b5f601f19601f8301169050919050565b7f4e487b71000000000000000000000000000000000000000000000000000000005f52604160045260245ffd5b611a03826119bd565b810181811067ffffffffffffffff82111715611a2257611a216119cd565b5b80604052505050565b5f611a346113f5565b9050611a4082826119fa565b919050565b5f67ffffffffffffffff821115611a5f57611a5e6119cd565b5b611a68826119bd565b9050602081019050919050565b5f5b83811015611a92578082015181840152602081019050611a77565b5f8484015250505050565b5f611aaf611aaa84611a45565b611a2b565b905082815260208101848484011115611acb57611aca6119b9565b5b611ad6848285611a75565b509392505050565b5f82601f830112611af257611af16119b5565b5b8151611b02848260208601611a9d565b91505092915050565b5f81519050611b19816116f7565b92915050565b5f819050919050565b611b3181611b1f565b8114611b3b575f80fd5b50565b5f81519050611b4c81611b28565b92915050565b611b5b81611528565b8114611b65575f80fd5b50565b5f81519050611b7681611b52565b92915050565b5f805f805f805f80610100898b031215611b9957611b986113fe565b5b5f611ba68b828c01611977565b9850506020611bb78b828c016119a1565b975050604089015167ffffffffffffffff811115611bd857611bd7611402565b5b611be48b828c01611ade565b9650506060611bf58b828c01611b0b565b9550506080611c068b828c01611b0b565b94505060a0611c178b828c01611977565b93505060c0611c288b828c01611b3e565b92505060e0611c398b828c01611b68565b9150509295985092959890939650565b7f4e487b71000000000000000000000000000000000000000000000000000000005f52601260045260245ffd5b7f4e487b71000000000000000000000000000000000000000000000000000000005f52601160045260245ffd5b5f611cad826113c4565b9150611cb8836113c4565b925082611cc857611cc7611c49565b5b828204905092915050565b5f81905092915050565b50565b5f611ceb5f83611cd3565b9150611cf682611cdd565b5f82019050919050565b5f611d0a82611ce0565b9150819050919050565b7f726566756e64206661696c6564000000000000000000000000000000000000005f82015250565b5f611d48600d8361175f565b9150611d5382611d14565b602082019050919050565b5f6020820190508181035f830152611d7581611d3c565b9050919050565b5f611d8682611b1f565b91507f80000000000000000000000000000000000000000000000000000000000000008203611db857611db7611c76565b5b815f039050919050565b7f666f7266656974206661696c65640000000000000000000000000000000000005f82015250565b5f611df6600e8361175f565b9150611e0182611dc2565b602082019050919050565b5f6020820190508181035f830152611e2381611dea565b9050919050565b611e3381611b1f565b82525050565b5f604082019050611e4c5f8301856114ff565b611e596020830184611e2a565b9392505050565b5f606082019050611e735f830186611519565b611e806020830185611e2a565b611e8d6040830184611e2a565b949350505050565b7f6e6f7420657870697265640000000000000000000000000000000000000000005f82015250565b5f611ec9600b8361175f565b9150611ed482611e95565b602082019050919050565b5f6020820190508181035f830152611ef681611ebd565b9050919050565b7f696e73756666696369656e74207374616b6500000000000000000000000000005f82015250565b5f611f3160128361175f565b9150611f3c82611efd565b602082019050919050565b5f6020820190508181035f830152611f5e81611f25565b9050919050565b7f7a65726f206861736800000000000000000000000000000000000000000000005f82015250565b5f611f9960098361175f565b9150611fa482611f65565b602082019050919050565b5f6020820190508181035f830152611fc681611f8d565b9050919050565b7f6578706572696d656e74206e6f7420666f756e640000000000000000000000005f82015250565b5f61200160148361175f565b915061200c82611fcd565b602082019050919050565b5f6020820190508181035f83015261202e81611ff5565b9050919050565b5f61203f826113c4565b915061204a836113c4565b925082820190508082111561206257612061611c76565b5b92915050565b5f60608201905061207b5f8301866115cb565b61208860208301856113cd565b612095604083018461153b565b94935050505056fea26469706673582212205aef677e9b13eb6537af496dba3597b750e9ea8e76951e4e417d9081c4b9865064736f6c63430008150033","linkReferences":{}},"methodIdentifiers":{"challengeStake()":"571dc452","challengeStakes(uint256)":"76cc3f22","challengeTimeout()":"51c54446","challenges(uint256)":"8f1d3776","expireChallenge(uint256)":"d0192ed2","getChallengeStatus(uint256)":"832c8bc6","nextChallengeId()":"fc67aa50","openChallenge(uint256,bytes32)":"f8e09a18","owner()":"8da5cb5b","registry()":"7b103999","reputation()":"c52164c6","resolveChallenge(uint256,bool)":"94a754e0","updateChallengeStake(uint256)":"42ffe845","updateChallengeTimeout(uint256)":"821364b1","verificationRewardDivisor()":"3ee3b4e1"},"id":0}