{"abi":[{"type":"constructor","inputs":[{"name":"reputationAddress","type":"address","internalType":"address"}],"stateMutability":"nonpayable"},{"type":"function","name":"MAX_CID_LENGTH","inputs":[],"outputs":[{"name":"","type":"uint256","internalType":"uint256"}],"stateMutability":"view"},{"type":"function","name":"MAX_DIFFICULTY","inputs":[],"outputs":[{"name":"","type":"uint256","internalType":"uint256"}],"stateMutability":"view"},{"type":"function","name":"VERSION","inputs":[],"outputs":[{"name":"","type":"uint256","internalType":"uint256"}],"stateMutability":"view"},{"type":"function","name":"getExperiment","inputs":[{"name":"experimentId","type":"uint256","internalType":"uint256"}],"outputs":[{"name":"id","type":"uint256","internalType":"uint256"},{"name":"submitter","type":"address","internalType":"address"},{"name":"cid","type":"string","internalType":"string"},{"name":"dataHash","type":"bytes32","internalType":"bytes32"},{"name":"metricsHash","type":"bytes32","internalType":"bytes32"},{"name":"difficulty","type":"uint256","internalType":"uint256"},{"name":"initialRV","type":"int256","internalType":"int256"},{"name":"submittedAt","type":"uint64","internalType":"uint64"}],"stateMutability":"view"},{"type":"function","name":"nextExperimentId","inputs":[],"outputs":[{"name":"","type":"uint256","internalType":"uint256"}],"stateMutability":"view"},{"type":"function","name":"owner","inputs":[],"outputs":[{"name":"","type":"address","internalType":"address"}],"stateMutability":"view"},{"type":"function","name":"pause","inputs":[],"outputs":[],"stateMutability":"nonpayable"},{"type":"function","name":"paused","inputs":[],"outputs":[{"name":"","type":"bool","internalType":"bool"}],"stateMutability":"view"},{"type":"function","name":"registerExperiment","inputs":[{"name":"cid","type":"string","internalType":"string"},{"name":"dataHash","type":"bytes32","internalType":"bytes32"},{"name":"metricsHash","type":"bytes32","internalType":"bytes32"},{"name":"difficulty","type":"uint256","internalType":"uint256"},{"name":"initialRV","type":"int256","internalType":"int256"}],"outputs":[{"name":"experimentId","type":"uint256","internalType":"uint256"}],"stateMutability":"nonpayable"},{"type":"function","name":"reputation","inputs":[],"outputs":[{"name":"","type":"address","internalType":"contract IReputation"}],"stateMutability":"view"},{"type":"function","name":"totalExperiments","inputs":[],"outputs":[{"name":"","type":"uint256","internalType":"uint256"}],"stateMutability":"view"},{"type":"function","name":"unpause","inputs":[],"outputs":[],"stateMutability":"nonpayable"},{"type":"event","name":"ExperimentRegistered","inputs":[{"name":"id","type":"uint256","indexed":true,"internalType":"uint256"},{"name":"submitter","type":"address","indexed":true,"internalType":"address"},{"name":"cid","type":"string","indexed":false,"internalType":"string"},{"name":"dataHash","type":"bytes32","indexed":true,"internalType":"bytes32"},{"name":"metricsHash","type":"bytes32","indexed":false,"internalType":"bytes32"},{"name":"difficulty","type":"uint256","indexed":false,"internalType":"uint256"},{"name":"initialRV","type":"int256","indexed":false,"internalType":"int256"},{"name":"submittedAt","type":"uint64","indexed":false,"internalType":"uint64"}],"anonymous":false},{"type":"event","name":"Paused","inputs":[{"name":"account","type":"address","indexed":false,"internalType":"address"}],"anonymous":false},{"type":"event","name":"Unpaused","inputs":[{"name":"account","type":"address","indexed":false,"internalType":"address"}],"anonymous":false},{"type":"error","name":"EnforcedPause","inputs":[]},{"type":"error","name":"ExpectedPause","inputs":[]},{"type":"error","name":"ReentrancyGuardReentrantCall","inputs":[]}],"bytecode":{"object":"0x60a060405234801562000010575f80fd5b506040516200191c3803806200191c8339818101604052810190620000369190620001e1565b6001620000586200004c6200014a60201b60201c565b6200017360201b60201c565b5f01819055505f73ffffffffffffffffffffffffffffffffffffffff168173ffffffffffffffffffffffffffffffffffffffff1603620000cf576040517f08c379a0000000000000000000000000000000000000000000000000000000008152600401620000c6906200026f565b60405180910390fd5b8073ffffffffffffffffffffffffffffffffffffffff1660808173ffffffffffffffffffffffffffffffffffffffff16815250503360035f6101000a81548173ffffffffffffffffffffffffffffffffffffffff021916908373ffffffffffffffffffffffffffffffffffffffff160217905550506200028f565b5f7f9b779b17422d0df92223018b32b4d1fa46e071723d6817e2486d003becc55f005f1b905090565b5f819050919050565b5f80fd5b5f73ffffffffffffffffffffffffffffffffffffffff82169050919050565b5f620001ab8262000180565b9050919050565b620001bd816200019f565b8114620001c8575f80fd5b50565b5f81519050620001db81620001b2565b92915050565b5f60208284031215620001f957620001f86200017c565b5b5f6200020884828501620001cb565b91505092915050565b5f82825260208201905092915050565b7f7a65726f206164647265737300000000000000000000000000000000000000005f82015250565b5f62000257600c8362000211565b9150620002648262000221565b602082019050919050565b5f6020820190508181035f830152620002888162000249565b9050919050565b60805161166d620002af5f395f818161051b015261086e015261166d5ff3fe608060405234801561000f575f80fd5b50600436106100b2575f3560e01c8063a82da60d1161006f578063a82da60d1461015b578063b9970f8714610179578063c52164c614610197578063c8a1e67b146101b5578063e40b1e31146101e5578063ffa1ad7414610203576100b2565b806314cc282b146100b657806334ae9b23146100d45780633f4ba83a1461010b5780635c975abb146101155780638456cb59146101335780638da5cb5b1461013d575b5f80fd5b6100be610221565b6040516100cb9190610b98565b60405180910390f35b6100ee60048036038101906100e99190610be3565b610229565b604051610102989796959493929190610d29565b60405180910390f35b6101136103a0565b005b61011d610439565b60405161012a9190610dc6565b60405180910390f35b61013b61044d565b005b6101456104e6565b6040516101529190610ddf565b60405180910390f35b61016361050b565b6040516101709190610b98565b60405180910390f35b610181610510565b60405161018e9190610b98565b60405180910390f35b61019f610519565b6040516101ac9190610e53565b60405180910390f35b6101cf60048036038101906101ca9190610f21565b61053d565b6040516101dc9190610b98565b60405180910390f35b6101ed610961565b6040516101fa9190610b98565b60405180910390f35b61020b610967565b6040516102189190610b98565b60405180910390f35b633b9aca0081565b5f8060605f805f805f8060025f8b81526020019081526020015f20905089815f01541461028b576040517f08c379a000000000000000000000000000000000000000000000000000000000815260040161028290611001565b60405180910390fd5b805f0154816001015f9054906101000a900473ffffffffffffffffffffffffffffffffffffffff16826005018360020154846003015485600101601c9054906101000a900463ffffffff1663ffffffff1686600401548760010160149054906101000a900467ffffffffffffffff168580546103069061104c565b80601f01602080910402602001604051908101604052809291908181526020018280546103329061104c565b801561037d5780601f106103545761010080835404028352916020019161037d565b820191905f5260205f20905b81548152906001019060200180831161036057829003601f168201915b505050505095509850985098509850985098509850985050919395975091939597565b60035f9054906101000a900473ffffffffffffffffffffffffffffffffffffffff1673ffffffffffffffffffffffffffffffffffffffff163373ffffffffffffffffffffffffffffffffffffffff161461042f576040517f08c379a0000000000000000000000000000000000000000000000000000000008152600401610426906110c6565b60405180910390fd5b61043761096c565b565b5f805f9054906101000a900460ff16905090565b60035f9054906101000a900473ffffffffffffffffffffffffffffffffffffffff1673ffffffffffffffffffffffffffffffffffffffff163373ffffffffffffffffffffffffffffffffffffffff16146104dc576040517f08c379a00000000000000000000000000000000000000000000000000000000081526004016104d3906110c6565b60405180910390fd5b6104e46109cc565b565b60035f9054906101000a900473ffffffffffffffffffffffffffffffffffffffff1681565b608081565b5f600154905090565b7f000000000000000000000000000000000000000000000000000000000000000081565b5f610546610a2d565b61054e610a4f565b5f87879050118015610564575060808787905011155b6105a3576040517f08c379a000000000000000000000000000000000000000000000000000000000815260040161059a9061112e565b60405180910390fd5b5f801b85036105e7576040517f08c379a00000000000000000000000000000000000000000000000000000000081526004016105de90611196565b60405180910390fd5b5f801b840361062b576040517f08c379a0000000000000000000000000000000000000000000000000000000008152600401610622906111fe565b60405180910390fd5b5f8311801561063e5750633b9aca008311155b61067d576040517f08c379a000000000000000000000000000000000000000000000000000000000815260040161067490611266565b60405180910390fd5b5f8212156106c0576040517f08c379a00000000000000000000000000000000000000000000000000000000081526004016106b7906112ce565b60405180910390fd5b600154905060015f81548092919060010191905055506040518061010001604052808281526020013373ffffffffffffffffffffffffffffffffffffffff1681526020014267ffffffffffffffff1681526020018463ffffffff16815260200186815260200185815260200183815260200188888080601f0160208091040260200160405190810160405280939291908181526020018383808284375f81840152601f19601f8201169050808301925050505050505081525060025f8381526020019081526020015f205f820151815f01556020820151816001015f6101000a81548173ffffffffffffffffffffffffffffffffffffffff021916908373ffffffffffffffffffffffffffffffffffffffff16021790555060408201518160010160146101000a81548167ffffffffffffffff021916908367ffffffffffffffff160217905550606082015181600101601c6101000a81548163ffffffff021916908363ffffffff1602179055506080820151816002015560a0820151816003015560c0820151816004015560e082015181600501908161086191906114ad565b509050505f82146108f5577f000000000000000000000000000000000000000000000000000000000000000073ffffffffffffffffffffffffffffffffffffffff1663f5b3ceda33846040518363ffffffff1660e01b81526004016108c792919061157c565b5f604051808303815f87803b1580156108de575f80fd5b505af11580156108f0573d5f803e3d5ffd5b505050505b843373ffffffffffffffffffffffffffffffffffffffff16827ff4143f58529324c383fd27c2aa492f5fb6357cd950e3299e77dcce71858f50458a8a89898942604051610947969594939291906115dd565b60405180910390a4610957610a90565b9695505050505050565b60015481565b600181565b610974610aaa565b5f805f6101000a81548160ff0219169083151502179055507f5db9ee0a495bf2e6ff9c91a7834c1ba4fdd244a5e8aa4e537bd38aeae4b073aa6109b5610aea565b6040516109c29190610ddf565b60405180910390a1565b6109d4610a4f565b60015f806101000a81548160ff0219169083151502179055507f62e78cea01bee320cd4e420270b5ea74000d11b0c9f74754ebdbfc544b05a258610a16610aea565b604051610a239190610ddf565b60405180910390a1565b610a35610af1565b6002610a47610a42610b32565b610b5b565b5f0181905550565b610a57610439565b15610a8e576040517fd93c066500000000000000000000000000000000000000000000000000000000815260040160405180910390fd5b565b6001610aa2610a9d610b32565b610b5b565b5f0181905550565b610ab2610439565b610ae8576040517f8dfc202b00000000000000000000000000000000000000000000000000000000815260040160405180910390fd5b565b5f33905090565b610af9610b64565b15610b30576040517f3ee5aeb500000000000000000000000000000000000000000000000000000000815260040160405180910390fd5b565b5f7f9b779b17422d0df92223018b32b4d1fa46e071723d6817e2486d003becc55f005f1b905090565b5f819050919050565b5f6002610b77610b72610b32565b610b5b565b5f015414905090565b5f819050919050565b610b9281610b80565b82525050565b5f602082019050610bab5f830184610b89565b92915050565b5f80fd5b5f80fd5b610bc281610b80565b8114610bcc575f80fd5b50565b5f81359050610bdd81610bb9565b92915050565b5f60208284031215610bf857610bf7610bb1565b5b5f610c0584828501610bcf565b91505092915050565b5f73ffffffffffffffffffffffffffffffffffffffff82169050919050565b5f610c3782610c0e565b9050919050565b610c4781610c2d565b82525050565b5f81519050919050565b5f82825260208201905092915050565b5f5b83811015610c84578082015181840152602081019050610c69565b5f8484015250505050565b5f601f19601f8301169050919050565b5f610ca982610c4d565b610cb38185610c57565b9350610cc3818560208601610c67565b610ccc81610c8f565b840191505092915050565b5f819050919050565b610ce981610cd7565b82525050565b5f819050919050565b610d0181610cef565b82525050565b5f67ffffffffffffffff82169050919050565b610d2381610d07565b82525050565b5f61010082019050610d3d5f83018b610b89565b610d4a602083018a610c3e565b8181036040830152610d5c8189610c9f565b9050610d6b6060830188610ce0565b610d786080830187610ce0565b610d8560a0830186610b89565b610d9260c0830185610cf8565b610d9f60e0830184610d1a565b9998505050505050505050565b5f8115159050919050565b610dc081610dac565b82525050565b5f602082019050610dd95f830184610db7565b92915050565b5f602082019050610df25f830184610c3e565b92915050565b5f819050919050565b5f610e1b610e16610e1184610c0e565b610df8565b610c0e565b9050919050565b5f610e2c82610e01565b9050919050565b5f610e3d82610e22565b9050919050565b610e4d81610e33565b82525050565b5f602082019050610e665f830184610e44565b92915050565b5f80fd5b5f80fd5b5f80fd5b5f8083601f840112610e8d57610e8c610e6c565b5b8235905067ffffffffffffffff811115610eaa57610ea9610e70565b5b602083019150836001820283011115610ec657610ec5610e74565b5b9250929050565b610ed681610cd7565b8114610ee0575f80fd5b50565b5f81359050610ef181610ecd565b92915050565b610f0081610cef565b8114610f0a575f80fd5b50565b5f81359050610f1b81610ef7565b92915050565b5f805f805f8060a08789031215610f3b57610f3a610bb1565b5b5f87013567ffffffffffffffff811115610f5857610f57610bb5565b5b610f6489828a01610e78565b96509650506020610f7789828a01610ee3565b9450506040610f8889828a01610ee3565b9350506060610f9989828a01610bcf565b9250506080610faa89828a01610f0d565b9150509295509295509295565b7f6578706572696d656e74206e6f7420666f756e640000000000000000000000005f82015250565b5f610feb601483610c57565b9150610ff682610fb7565b602082019050919050565b5f6020820190508181035f83015261101881610fdf565b9050919050565b7f4e487b71000000000000000000000000000000000000000000000000000000005f52602260045260245ffd5b5f600282049050600182168061106357607f821691505b6020821081036110765761107561101f565b5b50919050565b7f6e6f74206f776e657200000000000000000000000000000000000000000000005f82015250565b5f6110b0600983610c57565b91506110bb8261107c565b602082019050919050565b5f6020820190508181035f8301526110dd816110a4565b9050919050565b7f696e76616c696420434944206c656e67746800000000000000000000000000005f82015250565b5f611118601283610c57565b9150611123826110e4565b602082019050919050565b5f6020820190508181035f8301526111458161110c565b9050919050565b7f7a65726f206461746148617368000000000000000000000000000000000000005f82015250565b5f611180600d83610c57565b915061118b8261114c565b602082019050919050565b5f6020820190508181035f8301526111ad81611174565b9050919050565b7f7a65726f206d65747269637348617368000000000000000000000000000000005f82015250565b5f6111e8601083610c57565b91506111f3826111b4565b602082019050919050565b5f6020820190508181035f830152611215816111dc565b9050919050565b7f646966666963756c7479206f7574206f662072616e67650000000000000000005f82015250565b5f611250601783610c57565b915061125b8261121c565b602082019050919050565b5f6020820190508181035f83015261127d81611244565b9050919050565b7f6e656761746976652052560000000000000000000000000000000000000000005f82015250565b5f6112b8600b83610c57565b91506112c382611284565b602082019050919050565b5f6020820190508181035f8301526112e5816112ac565b9050919050565b7f4e487b71000000000000000000000000000000000000000000000000000000005f52604160045260245ffd5b5f819050815f5260205f209050919050565b5f6020601f8301049050919050565b5f82821b905092915050565b5f600883026113757fffffffffffffffffffffffffffffffffffffffffffffffffffffffffffffffff8261133a565b61137f868361133a565b95508019841693508086168417925050509392505050565b5f6113b16113ac6113a784610b80565b610df8565b610b80565b9050919050565b5f819050919050565b6113ca83611397565b6113de6113d6826113b8565b848454611346565b825550505050565b5f90565b6113f26113e6565b6113fd8184846113c1565b505050565b5b81811015611420576114155f826113ea565b600181019050611403565b5050565b601f8211156114655761143681611319565b61143f8461132b565b8101602085101561144e578190505b61146261145a8561132b565b830182611402565b50505b505050565b5f82821c905092915050565b5f6114855f198460080261146a565b1980831691505092915050565b5f61149d8383611476565b9150826002028217905092915050565b6114b682610c4d565b67ffffffffffffffff8111156114cf576114ce6112ec565b5b6114d9825461104c565b6114e4828285611424565b5f60209050601f831160018114611515575f8415611503578287015190505b61150d8582611492565b865550611574565b601f19841661152386611319565b5f5b8281101561154a57848901518255600182019150602085019450602081019050611525565b868310156115675784890151611563601f891682611476565b8355505b6001600288020188555050505b505050505050565b5f60408201905061158f5f830185610c3e565b61159c6020830184610cf8565b9392505050565b828183375f83830152505050565b5f6115bc8385610c57565b93506115c98385846115a3565b6115d283610c8f565b840190509392505050565b5f60a0820190508181035f8301526115f681888a6115b1565b90506116056020830187610ce0565b6116126040830186610b89565b61161f6060830185610cf8565b61162c6080830184610d1a565b97965050505050505056fea26469706673582212206f764e23153d0a04ea73a70715ec36b4c00cb7572e564e494c87255a7ab6681164736f6c63430008150033","linkReferences":{}},"methodIdentifiers":{"MAX_CID_LENGTH()":"a82da60d","MAX_DIFFICULTY()":"14cc282b","VERSION()":"ffa1ad74","getExperiment(uint256)":"34ae9b23","nextExperimentId()":"e40b1e31","owner()":"8da5cb5b","pause()":"8456cb59","paused()":"5c975abb","registerExperiment(string,bytes32,bytes32,uint256,int256)":"c8a1e67b","reputation()":"c52164c6","totalExperiments()":"b9970f87","unpause()":"3f4ba83a"},"id":1}