{"abi":[{"type":"constructor","inputs":[],"stateMutability":"nonpayable"},{"type":"function","name":"MAX_REPUTATION","inputs":[],"outputs":[{"name":"","type":"int256","internalType":"int256"}],"stateMutability":"view"},{"type":"function","name":"MIN_REPUTATION","inputs":[],"outputs":[{"name":"","type":"int256","internalType":"int256"}],"stateMutability":"view"},{"type":"function","name":"adjustReputation","inputs":[{"name":"user","type":"address","internalType":"address"},{"name":"delta","type":"int256","internalType":"int256"}],"outputs":[],"stateMutability":"nonpayable"},{"type":"function","name":"authorizationLocked","inputs":[],"outputs":[{"name":"","type":"bool","internalType":"bool"}],"stateMutability":"view"},{"type":"function","name":"challengeManager","inputs":[],"outputs":[{"name":"","type":"address","internalType":"address"}],"stateMutability":"view"},{"type":"function","name":"getReputation","inputs":[{"name":"user","type":"address","internalType":"address"}],"outputs":[{"name":"","type":"int256","internalType":"int256"}],"stateMutability":"view"},{"type":"function","name":"lockAuthorization","inputs":[],"outputs":[],"stateMutability":"nonpayable"},{"type":"function","name":"owner","inputs":[],"outputs":[{"name":"","type":"address","internalType":"address"}],"stateMutability":"view"},{"type":"function","name":"registry","inputs":[],"outputs":[{"name":"","type":"address","internalType":"address"}],"stateMutability":"view"},{"type":"function","name":"reputation","inputs":[{"name":"","type":"address","internalType":"address"}],"outputs":[{"name":"","type":"int256","internalType":"int256"}],"stateMutability":"view"},{"type":"function","name":"setAuthorized","inputs":[{"name":"_registry","type":"address","internalType":"address"},{"name":"_challengeManager","type":"address","internalType":"address"}],"outputs":[],"stateMutability":"nonpayable"},{"type":"event","name":"AuthorizationLocked","inputs":[],"anonymous":false},{"type":"event","name":"AuthorizedSet","inputs":[{"name":"registry","type":"address","indexed":true,"internalType":"address"},{"name":"challengeManager","type":"address","indexed":true,"internalType":"address"}],"anonymous":false},{"type":"event","name":"ReputationAdjusted","inputs":[{"name":"user","type":"address","indexed":true,"internalType":"address"},{"name":"delta","type":"int256","indexed":false,"internalType":"int256"},{"name":"newScore","type":"int256","indexed":false,"internalType":"int256"}],"anonymous":false}],"bytecode":{"object":"0x60a060405234801561000f575f80fd5b503373ffffffffffffffffffffffffffffffffffffffff1660808173ffffffffffffffffffffffffffffffffffffffff168152505060805161102361006a5f395f8181610228015281816104b2015261069701526110235ff3fe608060405234801561000f575f80fd5b50600436106100a7575f3560e01c80638da5cb5b1161006f5780638da5cb5b1461012b5780639c89a0e214610149578063a63f16a414610179578063b9f7945114610197578063d213c0f2146101c7578063f5b3ceda146101e5576100a7565b8063023a96fe146100ab57806332afe6c0146100c9578063697c6045146100e557806374ca148e146101035780637b1039991461010d575b5f80fd5b6100b3610201565b6040516100c09190610ab4565b60405180910390f35b6100e360048036038101906100de9190610afb565b610226565b005b6100ed610489565b6040516100fa9190610b51565b60405180910390f35b61010b6104b0565b005b610115610670565b6040516101229190610ab4565b60405180910390f35b610133610695565b6040516101409190610ab4565b60405180910390f35b610163600480360381019061015e9190610b6a565b6106b9565b6040516101709190610b51565b60405180910390f35b6101816106fe565b60405161018e9190610baf565b60405180910390f35b6101b160048036038101906101ac9190610b6a565b610711565b6040516101be9190610b51565b60405180910390f35b6101cf610725565b6040516101dc9190610b51565b60405180910390f35b6101ff60048036038101906101fa9190610bf2565b61073c565b005b60025f9054906101000a900473ffffffffffffffffffffffffffffffffffffffff1681565b7f000000000000000000000000000000000000000000000000000000000000000073ffffffffffffffffffffffffffffffffffffffff163373ffffffffffffffffffffffffffffffffffffffff16146102b4576040517f08c379a00000000000000000000000000000000000000000000000000000000081526004016102ab90610c8a565b60405180910390fd5b600260149054906101000a900460ff1615610304576040517f08c379a00000000000000000000000000000000000000000000000000000000081526004016102fb90610cf2565b60405180910390fd5b5f73ffffffffffffffffffffffffffffffffffffffff168273ffffffffffffffffffffffffffffffffffffffff161415801561036c57505f73ffffffffffffffffffffffffffffffffffffffff168173ffffffffffffffffffffffffffffffffffffffff1614155b6103ab576040517f08c379a00000000000000000000000000000000000000000000000000000000081526004016103a290610d5a565b60405180910390fd5b8160015f6101000a81548173ffffffffffffffffffffffffffffffffffffffff021916908373ffffffffffffffffffffffffffffffffffffffff1602179055508060025f6101000a81548173ffffffffffffffffffffffffffffffffffffffff021916908373ffffffffffffffffffffffffffffffffffffffff1602179055508073ffffffffffffffffffffffffffffffffffffffff168273ffffffffffffffffffffffffffffffffffffffff167fb4aa56aadfbbbed2c1c5e4ae77157e9a5e0bbbd2308de54f55a5adf46f4f4a8c60405160405180910390a35050565b7fffffffffffffffffffffffffffffffff80000000000000000000000000000000600f0b81565b7f000000000000000000000000000000000000000000000000000000000000000073ffffffffffffffffffffffffffffffffffffffff163373ffffffffffffffffffffffffffffffffffffffff161461053e576040517f08c379a000000000000000000000000000000000000000000000000000000000815260040161053590610c8a565b60405180910390fd5b5f73ffffffffffffffffffffffffffffffffffffffff1660015f9054906101000a900473ffffffffffffffffffffffffffffffffffffffff1673ffffffffffffffffffffffffffffffffffffffff16141580156105e857505f73ffffffffffffffffffffffffffffffffffffffff1660025f9054906101000a900473ffffffffffffffffffffffffffffffffffffffff1673ffffffffffffffffffffffffffffffffffffffff1614155b610627576040517f08c379a000000000000000000000000000000000000000000000000000000000815260040161061e90610dc2565b60405180910390fd5b6001600260146101000a81548160ff0219169083151502179055507f976b015a64441ed0c3883b20bb10f273536f0e4e57e3622511f5d3612767e88d60405160405180910390a1565b60015f9054906101000a900473ffffffffffffffffffffffffffffffffffffffff1681565b7f000000000000000000000000000000000000000000000000000000000000000081565b5f805f8373ffffffffffffffffffffffffffffffffffffffff1673ffffffffffffffffffffffffffffffffffffffff1681526020019081526020015f20549050919050565b600260149054906101000a900460ff1681565b5f602052805f5260405f205f915090505481565b6f7fffffffffffffffffffffffffffffff600f0b81565b60015f9054906101000a900473ffffffffffffffffffffffffffffffffffffffff1673ffffffffffffffffffffffffffffffffffffffff163373ffffffffffffffffffffffffffffffffffffffff1614806107e3575060025f9054906101000a900473ffffffffffffffffffffffffffffffffffffffff1673ffffffffffffffffffffffffffffffffffffffff163373ffffffffffffffffffffffffffffffffffffffff16145b610822576040517f08c379a000000000000000000000000000000000000000000000000000000000815260040161081990610e2a565b60405180910390fd5b5f73ffffffffffffffffffffffffffffffffffffffff168273ffffffffffffffffffffffffffffffffffffffff1603610890576040517f08c379a000000000000000000000000000000000000000000000000000000000815260040161088790610d5a565b60405180910390fd5b5f805f8473ffffffffffffffffffffffffffffffffffffffff1673ffffffffffffffffffffffffffffffffffffffff1681526020019081526020015f205490505f8083131561094d57826f7fffffffffffffffffffffffffffffff600f0b6108f89190610e75565b82131561093a576040517f08c379a000000000000000000000000000000000000000000000000000000000815260040161093190610eff565b60405180910390fd5b82826109469190610f1d565b90506109de565b5f8312156109d957827fffffffffffffffffffffffffffffffff80000000000000000000000000000000600f0b6109849190610e75565b8212156109c6576040517f08c379a00000000000000000000000000000000000000000000000000000000081526004016109bd90610fa8565b60405180910390fd5b82826109d29190610f1d565b90506109dd565b8190505b5b805f808673ffffffffffffffffffffffffffffffffffffffff1673ffffffffffffffffffffffffffffffffffffffff1681526020019081526020015f20819055508373ffffffffffffffffffffffffffffffffffffffff167fc50dbb871e779254da456c581cf2d7c88f3d006c55f9be329bc721791b68c6fa8483604051610a67929190610fc6565b60405180910390a250505050565b5f73ffffffffffffffffffffffffffffffffffffffff82169050919050565b5f610a9e82610a75565b9050919050565b610aae81610a94565b82525050565b5f602082019050610ac75f830184610aa5565b92915050565b5f80fd5b610ada81610a94565b8114610ae4575f80fd5b50565b5f81359050610af581610ad1565b92915050565b5f8060408385031215610b1157610b10610acd565b5b5f610b1e85828601610ae7565b9250506020610b2f85828601610ae7565b9150509250929050565b5f819050919050565b610b4b81610b39565b82525050565b5f602082019050610b645f830184610b42565b92915050565b5f60208284031215610b7f57610b7e610acd565b5b5f610b8c84828501610ae7565b91505092915050565b5f8115159050919050565b610ba981610b95565b82525050565b5f602082019050610bc25f830184610ba0565b92915050565b610bd181610b39565b8114610bdb575f80fd5b50565b5f81359050610bec81610bc8565b92915050565b5f8060408385031215610c0857610c07610acd565b5b5f610c1585828601610ae7565b9250506020610c2685828601610bde565b9150509250929050565b5f82825260208201905092915050565b7f6e6f74206f776e657200000000000000000000000000000000000000000000005f82015250565b5f610c74600983610c30565b9150610c7f82610c40565b602082019050919050565b5f6020820190508181035f830152610ca181610c68565b9050919050565b7f617574686f72697a6174696f6e206c6f636b65640000000000000000000000005f82015250565b5f610cdc601483610c30565b9150610ce782610ca8565b602082019050919050565b5f6020820190508181035f830152610d0981610cd0565b9050919050565b7f7a65726f206164647265737300000000000000000000000000000000000000005f82015250565b5f610d44600c83610c30565b9150610d4f82610d10565b602082019050919050565b5f6020820190508181035f830152610d7181610d38565b9050919050565b7f6e6f7420696e697469616c697a656400000000000000000000000000000000005f82015250565b5f610dac600f83610c30565b9150610db782610d78565b602082019050919050565b5f6020820190508181035f830152610dd981610da0565b9050919050565b7f6e6f7420617574686f72697a65640000000000000000000000000000000000005f82015250565b5f610e14600e83610c30565b9150610e1f82610de0565b602082019050919050565b5f6020820190508181035f830152610e4181610e08565b9050919050565b7f4e487b71000000000000000000000000000000000000000000000000000000005f52601160045260245ffd5b5f610e7f82610b39565b9150610e8a83610b39565b925082820390508181125f8412168282135f851215161715610eaf57610eae610e48565b5b92915050565b7f72657075746174696f6e206f766572666c6f77000000000000000000000000005f82015250565b5f610ee9601383610c30565b9150610ef482610eb5565b602082019050919050565b5f6020820190508181035f830152610f1681610edd565b9050919050565b5f610f2782610b39565b9150610f3283610b39565b92508282019050828112155f8312168382125f841215161715610f5857610f57610e48565b5b92915050565b7f72657075746174696f6e20756e646572666c6f770000000000000000000000005f82015250565b5f610f92601483610c30565b9150610f9d82610f5e565b602082019050919050565b5f6020820190508181035f830152610fbf81610f86565b9050919050565b5f604082019050610fd95f830185610b42565b610fe66020830184610b42565b939250505056fea2646970667358221220684d5468a002a3ae1bf5b28c74f5eccf71e6311d44aa76c62b9c18d95ee4925a64736f6c63430008150033","linkReferences":{}},"methodIdentifiers":{"MAX_REPUTATION()":"d213c0f2","MIN_REPUTATION()":"697c6045","adjustReputation(address,int256)":"f5b3ceda","authorizationLocked()":"a63f16a4","challengeManager()":"023a96fe","getReputation(address)":"9c89a0e2","lockAuthorization()":"74ca148e","owner()":"8da5cb5b","registry()":"7b103999","reputation(address)":"b9f79451","setAuthorized(address,address)":"32afe6c0"},"id":2}