{"abi":[{"type":"constructor","inputs":[{"name":"reputationAddress","type":"address","internalType":"address"}],"stateMutability":"nonpayable"},{"type":"function","name":"getExperiment","inputs":[{"name":"experimentId","type":"uint256","internalType":"uint256"}],"outputs":[{"name":"id","type":"uint256","internalType":"uint256"},{"name":"submitter","type":"address","internalType":"address"},{"name":"cid","type":"string","internalType":"string"},{"name":"dataHash","type":"bytes32","internalType":"bytes32"},{"name":"metricsHash","type":"bytes32","internalType":"bytes32"},{"name":"difficulty","type":"uint256","internalType":"uint256"},{"name":"initialRV","type":"int256","internalType":"int256"},{"name":"submittedAt","type":"uint64","internalType":"uint64"}],"stateMutability":"view"},{"type":"function","name":"nextExperimentId","inputs":[],"outputs":[{"name":"","type":"uint256","internalType":"uint256"}],"stateMutability":"view"},{"type":"function","name":"registerExperiment","inputs":[{"name":"cid","type":"string","internalType":"string"},{"name":"dataHash","type":"bytes32","internalType":"bytes32"},{"name":"metricsHash","type":"bytes32","internalType":"bytes32"},{"name":"difficulty","type":"uint256","internalType":"uint256"},{"name":"initialRV","type":"int256","internalType":"int256"}],"outputs":[{"name":"experimentId","type":"uint256","internalType":"uint256"}],"stateMutability":"nonpayable"},{"type":"function","name":"reputation","inputs":[],"outputs":[{"name":"","type":"address","internalType":"contract IReputation"}],"stateMutability":"view"},{"type":"function","name":"totalExperiments","inputs":[],"outputs":[{"name":"","type":"uint256","internalType":"uint256"}],"stateMutability":"view"},{"type":"event","name":"ExperimentRegistered","inputs":[{"name":"id","type":"uint256","indexed":true,"internalType":"uint256"},{"name":"submitter","type":"address","indexed":true,"internalType":"address"},{"name":"cid","type":"string","indexed":false,"internalType":"string"},{"name":"dataHash","type":"bytes32","indexed":false,"internalType":"bytes32"},{"name":"metricsHash","type":"bytes32","indexed":false,"internalType":"bytes32"},{"name":"difficulty","type":"uint256","indexed":false,"internalType":"uint256"},{"name":"initialRV","type":"int256","indexed":false,"internalType":"int256"},{"name":"submittedAt","type":"uint64","indexed":false,"internalType":"uint64"}],"anonymous":false}],"bytecode":{"object":"0x608060405234801561000f575f80fd5b50604051610e93380380610e93833981810160405281019061003191906100d5565b8060025f6101000a81548173ffffffffffffffffffffffffffffffffffffffff021916908373ffffffffffffffffffffffffffffffffffffffff16021790555050610100565b5f80fd5b5f73ffffffffffffffffffffffffffffffffffffffff82169050919050565b5f6100a48261007b565b9050919050565b6100b48161009a565b81146100be575f80fd5b50565b5f815190506100cf816100ab565b92915050565b5f602082840312156100ea576100e9610077565b5b5f6100f7848285016100c1565b91505092915050565b610d868061010d5f395ff3fe608060405234801561000f575f80fd5b5060043610610055575f3560e01c806334ae9b2314610059578063b9970f8714610090578063c52164c6146100ae578063c8a1e67b146100cc578063e40b1e31146100fc575b5f80fd5b610073600480360381019061006e9190610576565b61011a565b6040516100879897969594939291906106cb565b60405180910390f35b610098610235565b6040516100a5919061074e565b60405180910390f35b6100b661023d565b6040516100c391906107c2565b60405180910390f35b6100e660048036038101906100e19190610890565b610262565b6040516100f3919061074e565b60405180910390f35b610104610536565b604051610111919061074e565b60405180910390f35b5f8060605f805f805f8060015f8b81526020019081526020015f209050805f0154816001015f9054906101000a900473ffffffffffffffffffffffffffffffffffffffff16826002018360030154846004015485600501548660060154876007015f9054906101000a900467ffffffffffffffff1685805461019b90610953565b80601f01602080910402602001604051908101604052809291908181526020018280546101c790610953565b80156102125780601f106101e957610100808354040283529160200191610212565b820191905f5260205f20905b8154815290600101906020018083116101f557829003601f168201915b505050505095509850985098509850985098509850985050919395975091939597565b5f8054905090565b60025f9054906101000a900473ffffffffffffffffffffffffffffffffffffffff1681565b5f805f815480929190610274906109b0565b9190505590506040518061010001604052808281526020013373ffffffffffffffffffffffffffffffffffffffff16815260200188888080601f0160208091040260200160405190810160405280939291908181526020018383808284375f81840152601f19601f8201169050808301925050505050505081526020018681526020018581526020018481526020018381526020014267ffffffffffffffff1681525060015f8381526020019081526020015f205f820151815f01556020820151816001015f6101000a81548173ffffffffffffffffffffffffffffffffffffffff021916908373ffffffffffffffffffffffffffffffffffffffff160217905550604082015181600201908161038b9190610bb8565b50606082015181600301556080820151816004015560a0820151816005015560c0820151816006015560e0820151816007015f6101000a81548167ffffffffffffffff021916908367ffffffffffffffff1602179055509050505f73ffffffffffffffffffffffffffffffffffffffff1660025f9054906101000a900473ffffffffffffffffffffffffffffffffffffffff1673ffffffffffffffffffffffffffffffffffffffff161415801561044257505f8214155b156104d15760025f9054906101000a900473ffffffffffffffffffffffffffffffffffffffff1673ffffffffffffffffffffffffffffffffffffffff1663f5b3ceda33846040518363ffffffff1660e01b81526004016104a3929190610c87565b5f604051808303815f87803b1580156104ba575f80fd5b505af11580156104cc573d5f803e3d5ffd5b505050505b3373ffffffffffffffffffffffffffffffffffffffff16817ff4143f58529324c383fd27c2aa492f5fb6357cd950e3299e77dcce71858f5045898989898989426040516105249796959493929190610ce8565b60405180910390a39695505050505050565b5f5481565b5f80fd5b5f80fd5b5f819050919050565b61055581610543565b811461055f575f80fd5b50565b5f813590506105708161054c565b92915050565b5f6020828403121561058b5761058a61053b565b5b5f61059884828501610562565b91505092915050565b6105aa81610543565b82525050565b5f73ffffffffffffffffffffffffffffffffffffffff82169050919050565b5f6105d9826105b0565b9050919050565b6105e9816105cf565b82525050565b5f81519050919050565b5f82825260208201905092915050565b5f5b8381101561062657808201518184015260208101905061060b565b5f8484015250505050565b5f601f19601f8301169050919050565b5f61064b826105ef565b61065581856105f9565b9350610665818560208601610609565b61066e81610631565b840191505092915050565b5f819050919050565b61068b81610679565b82525050565b5f819050919050565b6106a381610691565b82525050565b5f67ffffffffffffffff82169050919050565b6106c5816106a9565b82525050565b5f610100820190506106df5f83018b6105a1565b6106ec602083018a6105e0565b81810360408301526106fe8189610641565b905061070d6060830188610682565b61071a6080830187610682565b61072760a08301866105a1565b61073460c083018561069a565b61074160e08301846106bc565b9998505050505050505050565b5f6020820190506107615f8301846105a1565b92915050565b5f819050919050565b5f61078a610785610780846105b0565b610767565b6105b0565b9050919050565b5f61079b82610770565b9050919050565b5f6107ac82610791565b9050919050565b6107bc816107a2565b82525050565b5f6020820190506107d55f8301846107b3565b92915050565b5f80fd5b5f80fd5b5f80fd5b5f8083601f8401126107fc576107fb6107db565b5b8235905067ffffffffffffffff811115610819576108186107df565b5b602083019150836001820283011115610835576108346107e3565b5b9250929050565b61084581610679565b811461084f575f80fd5b50565b5f813590506108608161083c565b92915050565b61086f81610691565b8114610879575f80fd5b50565b5f8135905061088a81610866565b92915050565b5f805f805f8060a087890312156108aa576108a961053b565b5b5f87013567ffffffffffffffff8111156108c7576108c661053f565b5b6108d389828a016107e7565b965096505060206108e689828a01610852565b94505060406108f789828a01610852565b935050606061090889828a01610562565b925050608061091989828a0161087c565b9150509295509295509295565b7f4e487b71000000000000000000000000000000000000000000000000000000005f52602260045260245ffd5b5f600282049050600182168061096a57607f821691505b60208210810361097d5761097c610926565b5b50919050565b7f4e487b71000000000000000000000000000000000000000000000000000000005f52601160045260245ffd5b5f6109ba82610543565b91507fffffffffffffffffffffffffffffffffffffffffffffffffffffffffffffffff82036109ec576109eb610983565b5b600182019050919050565b7f4e487b71000000000000000000000000000000000000000000000000000000005f52604160045260245ffd5b5f819050815f5260205f209050919050565b5f6020601f8301049050919050565b5f82821b905092915050565b5f60088302610a807fffffffffffffffffffffffffffffffffffffffffffffffffffffffffffffffff82610a45565b610a8a8683610a45565b95508019841693508086168417925050509392505050565b5f610abc610ab7610ab284610543565b610767565b610543565b9050919050565b5f819050919050565b610ad583610aa2565b610ae9610ae182610ac3565b848454610a51565b825550505050565b5f90565b610afd610af1565b610b08818484610acc565b505050565b5b81811015610b2b57610b205f82610af5565b600181019050610b0e565b5050565b601f821115610b7057610b4181610a24565b610b4a84610a36565b81016020851015610b59578190505b610b6d610b6585610a36565b830182610b0d565b50505b505050565b5f82821c905092915050565b5f610b905f1984600802610b75565b1980831691505092915050565b5f610ba88383610b81565b9150826002028217905092915050565b610bc1826105ef565b67ffffffffffffffff811115610bda57610bd96109f7565b5b610be48254610953565b610bef828285610b2f565b5f60209050601f831160018114610c20575f8415610c0e578287015190505b610c188582610b9d565b865550610c7f565b601f198416610c2e86610a24565b5f5b82811015610c5557848901518255600182019150602085019450602081019050610c30565b86831015610c725784890151610c6e601f891682610b81565b8355505b6001600288020188555050505b505050505050565b5f604082019050610c9a5f8301856105e0565b610ca7602083018461069a565b9392505050565b828183375f83830152505050565b5f610cc783856105f9565b9350610cd4838584610cae565b610cdd83610631565b840190509392505050565b5f60c0820190508181035f830152610d0181898b610cbc565b9050610d106020830188610682565b610d1d6040830187610682565b610d2a60608301866105a1565b610d37608083018561069a565b610d4460a08301846106bc565b9897505050505050505056fea2646970667358221220167c3df5aa6308bae2c5c483f9591ace818185433768baffef3f09f5ca81435b64736f6c63430008150033","linkReferences":{}},"methodIdentifiers":{"getExperiment(uint256)":"34ae9b23","nextExperimentId()":"e40b1e31","registerExperiment(string,bytes32,bytes32,uint256,int256)":"c8a1e67b","reputation()":"c52164c6","totalExperiments()":"b9970f87"},"id":1}